{
  "contractName": "BloodExams",
  "abi": [
    {
      "anonymous": false,
      "inputs": [
        {
          "indexed": false,
          "internalType": "uint256",
          "name": "id",
          "type": "uint256"
        },
        {
          "indexed": false,
          "internalType": "address",
          "name": "grantedTo",
          "type": "address"
        }
      ],
      "name": "AccessGranted",
      "type": "event"
    },
    {
      "anonymous": false,
      "inputs": [
        {
          "indexed": false,
          "internalType": "uint256",
          "name": "id",
          "type": "uint256"
        },
        {
          "indexed": false,
          "internalType": "address payable",
          "name": "owner",
          "type": "address"
        },
        {
          "indexed": false,
          "internalType": "string",
          "name": "ipfsHash",
          "type": "string"
        }
      ],
      "name": "BloodTestCreated",
      "type": "event"
    },
    {
      "inputs": [],
      "name": "bloodTestCount",
      "outputs": [
        {
          "internalType": "uint256",
          "name": "",
          "type": "uint256"
        }
      ],
      "stateMutability": "view",
      "type": "function",
      "constant": true
    },
    {
      "inputs": [
        {
          "internalType": "uint256",
          "name": "",
          "type": "uint256"
        }
      ],
      "name": "bloodTests",
      "outputs": [
        {
          "internalType": "uint256",
          "name": "id",
          "type": "uint256"
        },
        {
          "internalType": "address payable",
          "name": "owner",
          "type": "address"
        },
        {
          "internalType": "string",
          "name": "ipfsHash",
          "type": "string"
        }
      ],
      "stateMutability": "view",
      "type": "function",
      "constant": true
    },
    {
      "inputs": [
        {
          "internalType": "string",
          "name": "_ipfsHash",
          "type": "string"
        }
      ],
      "name": "createBloodTest",
      "outputs": [],
      "stateMutability": "nonpayable",
      "type": "function"
    },
    {
      "inputs": [
        {
          "internalType": "uint256",
          "name": "_id",
          "type": "uint256"
        },
        {
          "internalType": "address",
          "name": "_grantedTo",
          "type": "address"
        }
      ],
      "name": "grantAccess",
      "outputs": [],
      "stateMutability": "nonpayable",
      "type": "function"
    },
    {
      "inputs": [
        {
          "internalType": "uint256",
          "name": "_id",
          "type": "uint256"
        }
      ],
      "name": "getSharedWith",
      "outputs": [
        {
          "internalType": "address[]",
          "name": "",
          "type": "address[]"
        }
      ],
      "stateMutability": "view",
      "type": "function",
      "constant": true
    }
  ],
  "bytecode": "0x6080604052600060015534801561001557600080fd5b506110b0806100256000396000f3fe608060405234801561001057600080fd5b50600436106100575760003560e01c806349db96e31461005c578063629f307d1461007857806363edfb68146100a857806365dd152c146100c65780637c6c42a9146100e2575b600080fd5b61007660048036038101906100719190610877565b610114565b005b610092600480360381019061008d91906108f6565b610289565b60405161009f9190610a13565b60405180910390f35b6100b061038b565b6040516100bd9190610a44565b60405180910390f35b6100e060048036038101906100db9190610a8b565b610391565b005b6100fc60048036038101906100f791906108f6565b6105a4565b60405161010b93929190610b6b565b60405180910390f35b6001600081548092919061012790610bd8565b9190505550604051806080016040528060015481526020013373ffffffffffffffffffffffffffffffffffffffff168152602001828152602001600067ffffffffffffffff81111561017c5761017b61074c565b5b6040519080825280602002602001820160405280156101aa5781602001602082028036833780820191505090505b5081525060008060015481526020019081526020016000206000820151816000015560208201518160010160006101000a81548173ffffffffffffffffffffffffffffffffffffffff021916908373ffffffffffffffffffffffffffffffffffffffff16021790555060408201518160020190816102289190610e2c565b506060820151816003019080519060200190610245929190610676565b509050507fd4fa939e3c54e1893865a090e10a917c220f8d63df5a87ae0b0b05ff84b67664600154338360405161027e93929190610b6b565b60405180910390a150565b606060008060008481526020019081526020016000209050600081600001541180156102bb5750600154816000015411155b6102fa576040517f08c379a00000000000000000000000000000000000000000000000000000000081526004016102f190610f4a565b60405180910390fd5b8060030180548060200260200160405190810160405280929190818152602001828054801561037e57602002820191906000526020600020905b8160009054906101000a900473ffffffffffffffffffffffffffffffffffffffff1673ffffffffffffffffffffffffffffffffffffffff1681526020019060010190808311610334575b5050505050915050919050565b60015481565b60008060008481526020019081526020016000209050600081600001541180156103c15750600154816000015411155b610400576040517f08c379a00000000000000000000000000000000000000000000000000000000081526004016103f790610f4a565b60405180910390fd5b3373ffffffffffffffffffffffffffffffffffffffff168160010160009054906101000a900473ffffffffffffffffffffffffffffffffffffffff1673ffffffffffffffffffffffffffffffffffffffff1614610492576040517f08c379a000000000000000000000000000000000000000000000000000000000815260040161048990610fb6565b60405180910390fd5b600073ffffffffffffffffffffffffffffffffffffffff168273ffffffffffffffffffffffffffffffffffffffff1603610501576040517f08c379a00000000000000000000000000000000000000000000000000000000081526004016104f890611022565b60405180910390fd5b80600301829080600181540180825580915050600190039060005260206000200160009091909190916101000a81548173ffffffffffffffffffffffffffffffffffffffff021916908373ffffffffffffffffffffffffffffffffffffffff1602179055507f3c3a9147a1fc73dd51a32f4d10c43d457e8cb826eb6f35cac6349eb965ba82b48383604051610597929190611051565b60405180910390a1505050565b60006020528060005260406000206000915090508060000154908060010160009054906101000a900473ffffffffffffffffffffffffffffffffffffffff16908060020180546105f390610c4f565b80601f016020809104026020016040519081016040528092919081815260200182805461061f90610c4f565b801561066c5780601f106106415761010080835404028352916020019161066c565b820191906000526020600020905b81548152906001019060200180831161064f57829003601f168201915b5050505050905083565b8280548282559060005260206000209081019282156106ef579160200282015b828111156106ee5782518260006101000a81548173ffffffffffffffffffffffffffffffffffffffff021916908373ffffffffffffffffffffffffffffffffffffffff16021790555091602001919060010190610696565b5b5090506106fc9190610700565b5090565b5b80821115610719576000816000905550600101610701565b5090565b6000604051905090565b600080fd5b600080fd5b600080fd5b600080fd5b6000601f19601f8301169050919050565b7f4e487b7100000000000000000000000000000000000000000000000000000000600052604160045260246000fd5b6107848261073b565b810181811067ffffffffffffffff821117156107a3576107a261074c565b5b80604052505050565b60006107b661071d565b90506107c2828261077b565b919050565b600067ffffffffffffffff8211156107e2576107e161074c565b5b6107eb8261073b565b9050602081019050919050565b82818337600083830152505050565b600061081a610815846107c7565b6107ac565b90508281526020810184848401111561083657610835610736565b5b6108418482856107f8565b509392505050565b600082601f83011261085e5761085d610731565b5b813561086e848260208601610807565b91505092915050565b60006020828403121561088d5761088c610727565b5b600082013567ffffffffffffffff8111156108ab576108aa61072c565b5b6108b784828501610849565b91505092915050565b6000819050919050565b6108d3816108c0565b81146108de57600080fd5b50565b6000813590506108f0816108ca565b92915050565b60006020828403121561090c5761090b610727565b5b600061091a848285016108e1565b91505092915050565b600081519050919050565b600082825260208201905092915050565b6000819050602082019050919050565b600073ffffffffffffffffffffffffffffffffffffffff82169050919050565b600061097a8261094f565b9050919050565b61098a8161096f565b82525050565b600061099c8383610981565b60208301905092915050565b6000602082019050919050565b60006109c082610923565b6109ca818561092e565b93506109d58361093f565b8060005b83811015610a065781516109ed8882610990565b97506109f8836109a8565b9250506001810190506109d9565b5085935050505092915050565b60006020820190508181036000830152610a2d81846109b5565b905092915050565b610a3e816108c0565b82525050565b6000602082019050610a596000830184610a35565b92915050565b610a688161096f565b8114610a7357600080fd5b50565b600081359050610a8581610a5f565b92915050565b60008060408385031215610aa257610aa1610727565b5b6000610ab0858286016108e1565b9250506020610ac185828601610a76565b9150509250929050565b6000610ad68261094f565b9050919050565b610ae681610acb565b82525050565b600081519050919050565b600082825260208201905092915050565b60005b83811015610b26578082015181840152602081019050610b0b565b60008484015250505050565b6000610b3d82610aec565b610b478185610af7565b9350610b57818560208601610b08565b610b608161073b565b840191505092915050565b6000606082019050610b806000830186610a35565b610b8d6020830185610add565b8181036040830152610b9f8184610b32565b9050949350505050565b7f4e487b7100000000000000000000000000000000000000000000000000000000600052601160045260246000fd5b6000610be3826108c0565b91507fffffffffffffffffffffffffffffffffffffffffffffffffffffffffffffffff8203610c1557610c14610ba9565b5b600182019050919050565b7f4e487b7100000000000000000000000000000000000000000000000000000000600052602260045260246000fd5b60006002820490506001821680610c6757607f821691505b602082108103610c7a57610c79610c20565b5b50919050565b60008190508160005260206000209050919050565b60006020601f8301049050919050565b600082821b905092915050565b600060088302610ce27fffffffffffffffffffffffffffffffffffffffffffffffffffffffffffffffff82610ca5565b610cec8683610ca5565b95508019841693508086168417925050509392505050565b6000819050919050565b6000610d29610d24610d1f846108c0565b610d04565b6108c0565b9050919050565b6000819050919050565b610d4383610d0e565b610d57610d4f82610d30565b848454610cb2565b825550505050565b600090565b610d6c610d5f565b610d77818484610d3a565b505050565b5b81811015610d9b57610d90600082610d64565b600181019050610d7d565b5050565b601f821115610de057610db181610c80565b610dba84610c95565b81016020851015610dc9578190505b610ddd610dd585610c95565b830182610d7c565b50505b505050565b600082821c905092915050565b6000610e0360001984600802610de5565b1980831691505092915050565b6000610e1c8383610df2565b9150826002028217905092915050565b610e3582610aec565b67ffffffffffffffff811115610e4e57610e4d61074c565b5b610e588254610c4f565b610e63828285610d9f565b600060209050601f831160018114610e965760008415610e84578287015190505b610e8e8582610e10565b865550610ef6565b601f198416610ea486610c80565b60005b82811015610ecc57848901518255600182019150602085019450602081019050610ea7565b86831015610ee95784890151610ee5601f891682610df2565b8355505b6001600288020188555050505b505050505050565b7f426c6f6f64207465737420646f6573206e6f7420657869737400000000000000600082015250565b6000610f34601983610af7565b9150610f3f82610efe565b602082019050919050565b60006020820190508181036000830152610f6381610f27565b9050919050565b7f4f6e6c7920746865206f776e65722063616e206772616e742061636365737300600082015250565b6000610fa0601f83610af7565b9150610fab82610f6a565b602082019050919050565b60006020820190508181036000830152610fcf81610f93565b9050919050565b7f496e76616c696420616464726573730000000000000000000000000000000000600082015250565b600061100c600f83610af7565b915061101782610fd6565b602082019050919050565b6000602082019050818103600083015261103b81610fff565b9050919050565b61104b8161096f565b82525050565b60006040820190506110666000830185610a35565b6110736020830184611042565b939250505056fea2646970667358221220b474e9db35b34a040b610e9a13c14634bb30f8f33470a98b7567445b2aeb9a2964736f6c63430008130033",
  "immutableReferences": {},
  "source": "// SPDX-License-Identifier: MIT\r\npragma solidity ^0.8.19;\r\n\r\ncontract BloodExams {\r\n    struct BloodTest {\r\n        uint id;\r\n        address payable owner;\r\n        string ipfsHash; // hash do IPFS do exame de sangue\r\n        address[] sharedWith; // Lista de endereos com quem o exame  compartilhado\r\n    }\r\n\r\n    mapping(uint => BloodTest) public bloodTests;\r\n    uint public bloodTestCount = 0;\r\n\r\n    event BloodTestCreated(\r\n        uint id,\r\n        address payable owner,\r\n        string ipfsHash\r\n    );\r\n\r\n    event AccessGranted(\r\n        uint id,\r\n        address grantedTo\r\n    );\r\n\r\n    function createBloodTest(string memory _ipfsHash) public {\r\n        bloodTestCount ++;\r\n        bloodTests[bloodTestCount] = BloodTest(bloodTestCount, payable(msg.sender), _ipfsHash, new address[](0));\r\n        emit BloodTestCreated(bloodTestCount, payable(msg.sender), _ipfsHash);\r\n    }\r\n\r\n    function grantAccess(uint _id, address _grantedTo) public {\r\n        BloodTest storage _bloodTest = bloodTests[_id];\r\n        require(_bloodTest.id > 0 && _bloodTest.id <= bloodTestCount, \"Blood test does not exist\");\r\n        require(_bloodTest.owner == msg.sender, \"Only the owner can grant access\");\r\n        require(_grantedTo != address(0), \"Invalid address\");\r\n\r\n        _bloodTest.sharedWith.push(_grantedTo);\r\n        emit AccessGranted(_id, _grantedTo);\r\n    }\r\n\r\n    function getSharedWith(uint _id) public view returns (address[] memory) {\r\n        BloodTest storage _bloodTest = bloodTests[_id];\r\n        require(_bloodTest.id > 0 && _bloodTest.id <= bloodTestCount, \"Blood test does not exist\");\r\n        return _bloodTest.sharedWith;\r\n    }\r\n}\r\n",
  "sourcePath": "C:\\Users\\daian\\Desktop\\exames\\contracts\\BloodExams.sol",
  "compiler": {
    "name": "solc",
    "version": "0.8.19+commit.7dd6d404.Emscripten.clang"
  },
  "schemaVersion": "3.4.16",
  "updatedAt": "2024-07-21T20:35:29.841Z",
  "networkType": "ethereum",
  "devdoc": {
    "kind": "dev",
    "methods": {},
    "version": 1
  },
  "userdoc": {
    "kind": "user",
    "methods": {},
    "version": 1
  }
}