{
  "contractName": "BloodExams",
  "abi": [
    {
      "anonymous": false,
      "inputs": [
        {
          "indexed": false,
          "internalType": "uint256",
          "name": "id",
          "type": "uint256"
        },
        {
          "indexed": false,
          "internalType": "address",
          "name": "grantedTo",
          "type": "address"
        }
      ],
      "name": "AccessGranted",
      "type": "event"
    },
    {
      "anonymous": false,
      "inputs": [
        {
          "indexed": false,
          "internalType": "uint256",
          "name": "id",
          "type": "uint256"
        },
        {
          "indexed": false,
          "internalType": "address",
          "name": "revokedFrom",
          "type": "address"
        }
      ],
      "name": "AccessRevoked",
      "type": "event"
    },
    {
      "anonymous": false,
      "inputs": [
        {
          "indexed": false,
          "internalType": "uint256",
          "name": "id",
          "type": "uint256"
        },
        {
          "indexed": false,
          "internalType": "address payable",
          "name": "owner",
          "type": "address"
        },
        {
          "indexed": false,
          "internalType": "string",
          "name": "ipfsHash",
          "type": "string"
        }
      ],
      "name": "BloodTestCreated",
      "type": "event"
    },
    {
      "inputs": [],
      "name": "bloodTestCount",
      "outputs": [
        {
          "internalType": "uint256",
          "name": "",
          "type": "uint256"
        }
      ],
      "stateMutability": "view",
      "type": "function",
      "constant": true
    },
    {
      "inputs": [
        {
          "internalType": "uint256",
          "name": "",
          "type": "uint256"
        }
      ],
      "name": "bloodTests",
      "outputs": [
        {
          "internalType": "uint256",
          "name": "id",
          "type": "uint256"
        },
        {
          "internalType": "address payable",
          "name": "owner",
          "type": "address"
        },
        {
          "internalType": "string",
          "name": "ipfsHash",
          "type": "string"
        }
      ],
      "stateMutability": "view",
      "type": "function",
      "constant": true
    },
    {
      "inputs": [
        {
          "internalType": "string",
          "name": "_ipfsHash",
          "type": "string"
        }
      ],
      "name": "createBloodTest",
      "outputs": [],
      "stateMutability": "nonpayable",
      "type": "function"
    },
    {
      "inputs": [
        {
          "internalType": "uint256",
          "name": "_id",
          "type": "uint256"
        },
        {
          "internalType": "address",
          "name": "_grantedTo",
          "type": "address"
        }
      ],
      "name": "grantAccess",
      "outputs": [],
      "stateMutability": "nonpayable",
      "type": "function"
    },
    {
      "inputs": [
        {
          "internalType": "uint256",
          "name": "_id",
          "type": "uint256"
        },
        {
          "internalType": "address",
          "name": "_revokedFrom",
          "type": "address"
        }
      ],
      "name": "revokeAccess",
      "outputs": [],
      "stateMutability": "nonpayable",
      "type": "function"
    },
    {
      "inputs": [
        {
          "internalType": "uint256",
          "name": "_id",
          "type": "uint256"
        }
      ],
      "name": "getSharedWith",
      "outputs": [
        {
          "internalType": "address[]",
          "name": "",
          "type": "address[]"
        }
      ],
      "stateMutability": "view",
      "type": "function",
      "constant": true
    }
  ],
  "bytecode": "0x6080604052600060015534801561001557600080fd5b5061151c806100256000396000f3fe608060405234801561001057600080fd5b50600436106100625760003560e01c806349db96e314610067578063629f307d1461008357806363edfb68146100b357806365dd152c146100d15780637c6c42a9146100ed578063d9a5ec1b1461011f575b600080fd5b610081600480360381019061007c9190610be5565b61013b565b005b61009d60048036038101906100989190610c64565b6102b0565b6040516100aa9190610d81565b60405180910390f35b6100bb6103b2565b6040516100c89190610db2565b60405180910390f35b6100eb60048036038101906100e69190610df9565b6103b8565b005b61010760048036038101906101029190610c64565b6105cb565b60405161011693929190610ed9565b60405180910390f35b61013960048036038101906101349190610df9565b61069d565b005b6001600081548092919061014e90610f46565b9190505550604051806080016040528060015481526020013373ffffffffffffffffffffffffffffffffffffffff168152602001828152602001600067ffffffffffffffff8111156101a3576101a2610aba565b5b6040519080825280602002602001820160405280156101d15781602001602082028036833780820191505090505b5081525060008060015481526020019081526020016000206000820151816000015560208201518160010160006101000a81548173ffffffffffffffffffffffffffffffffffffffff021916908373ffffffffffffffffffffffffffffffffffffffff160217905550604082015181600201908161024f919061119a565b50606082015181600301908051906020019061026c9291906109e4565b509050507fd4fa939e3c54e1893865a090e10a917c220f8d63df5a87ae0b0b05ff84b6766460015433836040516102a593929190610ed9565b60405180910390a150565b606060008060008481526020019081526020016000209050600081600001541180156102e25750600154816000015411155b610321576040517f08c379a0000000000000000000000000000000000000000000000000000000008152600401610318906112b8565b60405180910390fd5b806003018054806020026020016040519081016040528092919081815260200182805480156103a557602002820191906000526020600020905b8160009054906101000a900473ffffffffffffffffffffffffffffffffffffffff1673ffffffffffffffffffffffffffffffffffffffff168152602001906001019080831161035b575b5050505050915050919050565b60015481565b60008060008481526020019081526020016000209050600081600001541180156103e85750600154816000015411155b610427576040517f08c379a000000000000000000000000000000000000000000000000000000000815260040161041e906112b8565b60405180910390fd5b3373ffffffffffffffffffffffffffffffffffffffff168160010160009054906101000a900473ffffffffffffffffffffffffffffffffffffffff1673ffffffffffffffffffffffffffffffffffffffff16146104b9576040517f08c379a00000000000000000000000000000000000000000000000000000000081526004016104b090611324565b60405180910390fd5b600073ffffffffffffffffffffffffffffffffffffffff168273ffffffffffffffffffffffffffffffffffffffff1603610528576040517f08c379a000000000000000000000000000000000000000000000000000000000815260040161051f90611390565b60405180910390fd5b80600301829080600181540180825580915050600190039060005260206000200160009091909190916101000a81548173ffffffffffffffffffffffffffffffffffffffff021916908373ffffffffffffffffffffffffffffffffffffffff1602179055507f3c3a9147a1fc73dd51a32f4d10c43d457e8cb826eb6f35cac6349eb965ba82b483836040516105be9291906113bf565b60405180910390a1505050565b60006020528060005260406000206000915090508060000154908060010160009054906101000a900473ffffffffffffffffffffffffffffffffffffffff169080600201805461061a90610fbd565b80601f016020809104026020016040519081016040528092919081815260200182805461064690610fbd565b80156106935780601f1061066857610100808354040283529160200191610693565b820191906000526020600020905b81548152906001019060200180831161067657829003601f168201915b5050505050905083565b60008060008481526020019081526020016000209050600081600001541180156106cd5750600154816000015411155b61070c576040517f08c379a0000000000000000000000000000000000000000000000000000000008152600401610703906112b8565b60405180910390fd5b3373ffffffffffffffffffffffffffffffffffffffff168160010160009054906101000a900473ffffffffffffffffffffffffffffffffffffffff1673ffffffffffffffffffffffffffffffffffffffff161461079e576040517f08c379a000000000000000000000000000000000000000000000000000000000815260040161079590611434565b60405180910390fd5b600073ffffffffffffffffffffffffffffffffffffffff168273ffffffffffffffffffffffffffffffffffffffff160361080d576040517f08c379a000000000000000000000000000000000000000000000000000000000815260040161080490611390565b60405180910390fd5b60005b81600301805490508110156109de578273ffffffffffffffffffffffffffffffffffffffff1682600301828154811061084c5761084b611454565b5b9060005260206000200160009054906101000a900473ffffffffffffffffffffffffffffffffffffffff1673ffffffffffffffffffffffffffffffffffffffff16036109cb5781600301600183600301805490506108aa9190611483565b815481106108bb576108ba611454565b5b9060005260206000200160009054906101000a900473ffffffffffffffffffffffffffffffffffffffff168260030182815481106108fc576108fb611454565b5b9060005260206000200160006101000a81548173ffffffffffffffffffffffffffffffffffffffff021916908373ffffffffffffffffffffffffffffffffffffffff16021790555081600301805480610958576109576114b7565b5b6001900381819060005260206000200160006101000a81549073ffffffffffffffffffffffffffffffffffffffff021916905590557f125883b94692baebecad9f111ed97ffa626523bbbadc6b0ef85ee1b56b9e52d584846040516109be9291906113bf565b60405180910390a16109de565b80806109d690610f46565b915050610810565b50505050565b828054828255906000526020600020908101928215610a5d579160200282015b82811115610a5c5782518260006101000a81548173ffffffffffffffffffffffffffffffffffffffff021916908373ffffffffffffffffffffffffffffffffffffffff16021790555091602001919060010190610a04565b5b509050610a6a9190610a6e565b5090565b5b80821115610a87576000816000905550600101610a6f565b5090565b6000604051905090565b600080fd5b600080fd5b600080fd5b600080fd5b6000601f19601f8301169050919050565b7f4e487b7100000000000000000000000000000000000000000000000000000000600052604160045260246000fd5b610af282610aa9565b810181811067ffffffffffffffff82111715610b1157610b10610aba565b5b80604052505050565b6000610b24610a8b565b9050610b308282610ae9565b919050565b600067ffffffffffffffff821115610b5057610b4f610aba565b5b610b5982610aa9565b9050602081019050919050565b82818337600083830152505050565b6000610b88610b8384610b35565b610b1a565b905082815260208101848484011115610ba457610ba3610aa4565b5b610baf848285610b66565b509392505050565b600082601f830112610bcc57610bcb610a9f565b5b8135610bdc848260208601610b75565b91505092915050565b600060208284031215610bfb57610bfa610a95565b5b600082013567ffffffffffffffff811115610c1957610c18610a9a565b5b610c2584828501610bb7565b91505092915050565b6000819050919050565b610c4181610c2e565b8114610c4c57600080fd5b50565b600081359050610c5e81610c38565b92915050565b600060208284031215610c7a57610c79610a95565b5b6000610c8884828501610c4f565b91505092915050565b600081519050919050565b600082825260208201905092915050565b6000819050602082019050919050565b600073ffffffffffffffffffffffffffffffffffffffff82169050919050565b6000610ce882610cbd565b9050919050565b610cf881610cdd565b82525050565b6000610d0a8383610cef565b60208301905092915050565b6000602082019050919050565b6000610d2e82610c91565b610d388185610c9c565b9350610d4383610cad565b8060005b83811015610d74578151610d5b8882610cfe565b9750610d6683610d16565b925050600181019050610d47565b5085935050505092915050565b60006020820190508181036000830152610d9b8184610d23565b905092915050565b610dac81610c2e565b82525050565b6000602082019050610dc76000830184610da3565b92915050565b610dd681610cdd565b8114610de157600080fd5b50565b600081359050610df381610dcd565b92915050565b60008060408385031215610e1057610e0f610a95565b5b6000610e1e85828601610c4f565b9250506020610e2f85828601610de4565b9150509250929050565b6000610e4482610cbd565b9050919050565b610e5481610e39565b82525050565b600081519050919050565b600082825260208201905092915050565b60005b83811015610e94578082015181840152602081019050610e79565b60008484015250505050565b6000610eab82610e5a565b610eb58185610e65565b9350610ec5818560208601610e76565b610ece81610aa9565b840191505092915050565b6000606082019050610eee6000830186610da3565b610efb6020830185610e4b565b8181036040830152610f0d8184610ea0565b9050949350505050565b7f4e487b7100000000000000000000000000000000000000000000000000000000600052601160045260246000fd5b6000610f5182610c2e565b91507fffffffffffffffffffffffffffffffffffffffffffffffffffffffffffffffff8203610f8357610f82610f17565b5b600182019050919050565b7f4e487b7100000000000000000000000000000000000000000000000000000000600052602260045260246000fd5b60006002820490506001821680610fd557607f821691505b602082108103610fe857610fe7610f8e565b5b50919050565b60008190508160005260206000209050919050565b60006020601f8301049050919050565b600082821b905092915050565b6000600883026110507fffffffffffffffffffffffffffffffffffffffffffffffffffffffffffffffff82611013565b61105a8683611013565b95508019841693508086168417925050509392505050565b6000819050919050565b600061109761109261108d84610c2e565b611072565b610c2e565b9050919050565b6000819050919050565b6110b18361107c565b6110c56110bd8261109e565b848454611020565b825550505050565b600090565b6110da6110cd565b6110e58184846110a8565b505050565b5b81811015611109576110fe6000826110d2565b6001810190506110eb565b5050565b601f82111561114e5761111f81610fee565b61112884611003565b81016020851015611137578190505b61114b61114385611003565b8301826110ea565b50505b505050565b600082821c905092915050565b600061117160001984600802611153565b1980831691505092915050565b600061118a8383611160565b9150826002028217905092915050565b6111a382610e5a565b67ffffffffffffffff8111156111bc576111bb610aba565b5b6111c68254610fbd565b6111d182828561110d565b600060209050601f83116001811461120457600084156111f2578287015190505b6111fc858261117e565b865550611264565b601f19841661121286610fee565b60005b8281101561123a57848901518255600182019150602085019450602081019050611215565b868310156112575784890151611253601f891682611160565b8355505b6001600288020188555050505b505050505050565b7f426c6f6f64207465737420646f6573206e6f7420657869737400000000000000600082015250565b60006112a2601983610e65565b91506112ad8261126c565b602082019050919050565b600060208201905081810360008301526112d181611295565b9050919050565b7f4f6e6c7920746865206f776e65722063616e206772616e742061636365737300600082015250565b600061130e601f83610e65565b9150611319826112d8565b602082019050919050565b6000602082019050818103600083015261133d81611301565b9050919050565b7f496e76616c696420616464726573730000000000000000000000000000000000600082015250565b600061137a600f83610e65565b915061138582611344565b602082019050919050565b600060208201905081810360008301526113a98161136d565b9050919050565b6113b981610cdd565b82525050565b60006040820190506113d46000830185610da3565b6113e160208301846113b0565b9392505050565b7f4f6e6c7920746865206f776e65722063616e207265766f6b6520616363657373600082015250565b600061141e602083610e65565b9150611429826113e8565b602082019050919050565b6000602082019050818103600083015261144d81611411565b9050919050565b7f4e487b7100000000000000000000000000000000000000000000000000000000600052603260045260246000fd5b600061148e82610c2e565b915061149983610c2e565b92508282039050818111156114b1576114b0610f17565b5b92915050565b7f4e487b7100000000000000000000000000000000000000000000000000000000600052603160045260246000fdfea2646970667358221220f07a9406bb18f78eec5f71f29b3d608c9caccd5c601c3a7e62aa7e872c21f80b64736f6c63430008130033",
  "immutableReferences": {},
  "source": "// SPDX-License-Identifier: MIT\r\npragma solidity ^0.8.19;\r\n\r\ncontract BloodExams {\r\n    struct BloodTest {\r\n        uint id;\r\n        address payable owner;\r\n        string ipfsHash; // hash do IPFS do exame de sangue\r\n        address[] sharedWith; // Lista de endereos com quem o exame  compartilhado\r\n    }\r\n\r\n    mapping(uint => BloodTest) public bloodTests;\r\n    uint public bloodTestCount = 0;\r\n\r\n    event BloodTestCreated(\r\n        uint id,\r\n        address payable owner,\r\n        string ipfsHash\r\n    );\r\n\r\n    event AccessGranted(\r\n        uint id,\r\n        address grantedTo\r\n    );\r\n\r\n    event AccessRevoked(\r\n        uint id,\r\n        address revokedFrom\r\n    );\r\n\r\n    function createBloodTest(string memory _ipfsHash) public {\r\n        bloodTestCount ++;\r\n        bloodTests[bloodTestCount] = BloodTest(bloodTestCount, payable(msg.sender), _ipfsHash, new address[](0));\r\n        emit BloodTestCreated(bloodTestCount, payable(msg.sender), _ipfsHash);\r\n    }\r\n\r\n    function grantAccess(uint _id, address _grantedTo) public {\r\n        BloodTest storage _bloodTest = bloodTests[_id];\r\n        require(_bloodTest.id > 0 && _bloodTest.id <= bloodTestCount, \"Blood test does not exist\");\r\n        require(_bloodTest.owner == msg.sender, \"Only the owner can grant access\");\r\n        require(_grantedTo != address(0), \"Invalid address\");\r\n\r\n        _bloodTest.sharedWith.push(_grantedTo);\r\n        emit AccessGranted(_id, _grantedTo);\r\n    }\r\n\r\n    function revokeAccess(uint _id, address _revokedFrom) public {\r\n        BloodTest storage _bloodTest = bloodTests[_id];\r\n        require(_bloodTest.id > 0 && _bloodTest.id <= bloodTestCount, \"Blood test does not exist\");\r\n        require(_bloodTest.owner == msg.sender, \"Only the owner can revoke access\");\r\n        require(_revokedFrom != address(0), \"Invalid address\");\r\n\r\n        for (uint i = 0; i < _bloodTest.sharedWith.length; i++) {\r\n            if (_bloodTest.sharedWith[i] == _revokedFrom) {\r\n                _bloodTest.sharedWith[i] = _bloodTest.sharedWith[_bloodTest.sharedWith.length - 1];\r\n                _bloodTest.sharedWith.pop();\r\n                emit AccessRevoked(_id, _revokedFrom);\r\n                break;\r\n            }\r\n        }\r\n    }\r\n\r\n    function getSharedWith(uint _id) public view returns (address[] memory) {\r\n        BloodTest storage _bloodTest = bloodTests[_id];\r\n        require(_bloodTest.id > 0 && _bloodTest.id <= bloodTestCount, \"Blood test does not exist\");\r\n        return _bloodTest.sharedWith;\r\n    }\r\n}\r\n",
  "sourcePath": "C:\\Users\\daian\\Desktop\\exames\\contracts\\BloodExams.sol",
  "compiler": {
    "name": "solc",
    "version": "0.8.19+commit.7dd6d404.Emscripten.clang"
  },
  "schemaVersion": "3.4.16",
  "updatedAt": "2024-07-21T22:49:45.415Z",
  "networkType": "ethereum",
  "devdoc": {
    "kind": "dev",
    "methods": {},
    "version": 1
  },
  "userdoc": {
    "kind": "user",
    "methods": {},
    "version": 1
  }
}