{
  "contractName": "DigitalMarketplace",
  "abi": [
    {
      "anonymous": false,
      "inputs": [
        {
          "indexed": false,
          "internalType": "uint256",
          "name": "id",
          "type": "uint256"
        },
        {
          "indexed": false,
          "internalType": "address payable",
          "name": "owner",
          "type": "address"
        },
        {
          "indexed": false,
          "internalType": "uint256",
          "name": "price",
          "type": "uint256"
        },
        {
          "indexed": false,
          "internalType": "bool",
          "name": "purchased",
          "type": "bool"
        },
        {
          "indexed": false,
          "internalType": "string",
          "name": "ipfsHash",
          "type": "string"
        }
      ],
      "name": "ProductCreated",
      "type": "event"
    },
    {
      "anonymous": false,
      "inputs": [
        {
          "indexed": false,
          "internalType": "uint256",
          "name": "id",
          "type": "uint256"
        },
        {
          "indexed": false,
          "internalType": "address payable",
          "name": "owner",
          "type": "address"
        },
        {
          "indexed": false,
          "internalType": "address payable",
          "name": "buyer",
          "type": "address"
        },
        {
          "indexed": false,
          "internalType": "uint256",
          "name": "price",
          "type": "uint256"
        },
        {
          "indexed": false,
          "internalType": "bool",
          "name": "purchased",
          "type": "bool"
        },
        {
          "indexed": false,
          "internalType": "string",
          "name": "ipfsHash",
          "type": "string"
        }
      ],
      "name": "ProductPurchased",
      "type": "event"
    },
    {
      "inputs": [],
      "name": "productCount",
      "outputs": [
        {
          "internalType": "uint256",
          "name": "",
          "type": "uint256"
        }
      ],
      "stateMutability": "view",
      "type": "function",
      "constant": true
    },
    {
      "inputs": [
        {
          "internalType": "uint256",
          "name": "",
          "type": "uint256"
        }
      ],
      "name": "products",
      "outputs": [
        {
          "internalType": "uint256",
          "name": "id",
          "type": "uint256"
        },
        {
          "internalType": "address payable",
          "name": "owner",
          "type": "address"
        },
        {
          "internalType": "uint256",
          "name": "price",
          "type": "uint256"
        },
        {
          "internalType": "bool",
          "name": "purchased",
          "type": "bool"
        },
        {
          "internalType": "string",
          "name": "ipfsHash",
          "type": "string"
        }
      ],
      "stateMutability": "view",
      "type": "function",
      "constant": true
    },
    {
      "inputs": [
        {
          "internalType": "uint256",
          "name": "_price",
          "type": "uint256"
        },
        {
          "internalType": "string",
          "name": "_ipfsHash",
          "type": "string"
        }
      ],
      "name": "createProduct",
      "outputs": [],
      "stateMutability": "nonpayable",
      "type": "function"
    },
    {
      "inputs": [
        {
          "internalType": "uint256",
          "name": "_id",
          "type": "uint256"
        }
      ],
      "name": "purchaseProduct",
      "outputs": [],
      "stateMutability": "payable",
      "type": "function",
      "payable": true
    }
  ],
  "bytecode": "0x6080604052600060015534801561001557600080fd5b50611114806100256000396000f3fe60806040526004361061003f5760003560e01c80630a01841d1461004457806338e76a031461006d5780637acc0b2014610089578063e0f6ef87146100ca575b600080fd5b34801561005057600080fd5b5061006b6004803603810190610066919061091d565b6100f5565b005b61008760048036038101906100829190610979565b610280565b005b34801561009557600080fd5b506100b060048036038101906100ab9190610979565b61069c565b6040516100c1959493929190610a90565b60405180910390f35b3480156100d657600080fd5b506100df610787565b6040516100ec9190610aea565b60405180910390f35b60008211610138576040517f08c379a000000000000000000000000000000000000000000000000000000000815260040161012f90610b51565b60405180910390fd5b6001600081548092919061014b90610ba0565b91905055506040518060a0016040528060015481526020013373ffffffffffffffffffffffffffffffffffffffff1681526020018381526020016000151581526020018281525060008060015481526020019081526020016000206000820151816000015560208201518160010160006101000a81548173ffffffffffffffffffffffffffffffffffffffff021916908373ffffffffffffffffffffffffffffffffffffffff1602179055506040820151816002015560608201518160030160006101000a81548160ff02191690831515021790555060808201518160040190816102369190610df4565b509050507fe460b297915ef5880c14aed216e9b304a6bbf6bd9a62f411cd900dc25d8ea7c76001543384600085604051610274959493929190610a90565b60405180910390a15050565b60008060008381526020019081526020016000206040518060a0016040529081600082015481526020016001820160009054906101000a900473ffffffffffffffffffffffffffffffffffffffff1673ffffffffffffffffffffffffffffffffffffffff1673ffffffffffffffffffffffffffffffffffffffff168152602001600282015481526020016003820160009054906101000a900460ff1615151515815260200160048201805461033490610c17565b80601f016020809104026020016040519081016040528092919081815260200182805461036090610c17565b80156103ad5780601f10610382576101008083540402835291602001916103ad565b820191906000526020600020905b81548152906001019060200180831161039057829003601f168201915b5050505050815250509050600081602001519050600082600001511180156103db5750600154826000015111155b61041a576040517f08c379a000000000000000000000000000000000000000000000000000000000815260040161041190610f12565b60405180910390fd5b8160400151341015610461576040517f08c379a000000000000000000000000000000000000000000000000000000000815260040161045890610f7e565b60405180910390fd5b8160600151156104a6576040517f08c379a000000000000000000000000000000000000000000000000000000000815260040161049d90610fea565b60405180910390fd5b3373ffffffffffffffffffffffffffffffffffffffff168173ffffffffffffffffffffffffffffffffffffffff1603610514576040517f08c379a000000000000000000000000000000000000000000000000000000000815260040161050b90611056565b60405180910390fd5b33826020019073ffffffffffffffffffffffffffffffffffffffff16908173ffffffffffffffffffffffffffffffffffffffff16815250506001826060019015159081151581525050816000808581526020019081526020016000206000820151816000015560208201518160010160006101000a81548173ffffffffffffffffffffffffffffffffffffffff021916908373ffffffffffffffffffffffffffffffffffffffff1602179055506040820151816002015560608201518160030160006101000a81548160ff02191690831515021790555060808201518160040190816106009190610df4565b509050508073ffffffffffffffffffffffffffffffffffffffff166108fc349081150290604051600060405180830381858888f1935050505015801561064a573d6000803e3d6000fd5b507f0b90c29b82f56fc6db36be6e75cdb79501a26562e319957c15654d8dd6677c25600154823385604001516001876080015160405161068f96959493929190611076565b60405180910390a1505050565b60006020528060005260406000206000915090508060000154908060010160009054906101000a900473ffffffffffffffffffffffffffffffffffffffff16908060020154908060030160009054906101000a900460ff169080600401805461070490610c17565b80601f016020809104026020016040519081016040528092919081815260200182805461073090610c17565b801561077d5780601f106107525761010080835404028352916020019161077d565b820191906000526020600020905b81548152906001019060200180831161076057829003601f168201915b5050505050905085565b60015481565b6000604051905090565b600080fd5b600080fd5b6000819050919050565b6107b4816107a1565b81146107bf57600080fd5b50565b6000813590506107d1816107ab565b92915050565b600080fd5b600080fd5b6000601f19601f8301169050919050565b7f4e487b7100000000000000000000000000000000000000000000000000000000600052604160045260246000fd5b61082a826107e1565b810181811067ffffffffffffffff82111715610849576108486107f2565b5b80604052505050565b600061085c61078d565b90506108688282610821565b919050565b600067ffffffffffffffff821115610888576108876107f2565b5b610891826107e1565b9050602081019050919050565b82818337600083830152505050565b60006108c06108bb8461086d565b610852565b9050828152602081018484840111156108dc576108db6107dc565b5b6108e784828561089e565b509392505050565b600082601f830112610904576109036107d7565b5b81356109148482602086016108ad565b91505092915050565b6000806040838503121561093457610933610797565b5b6000610942858286016107c2565b925050602083013567ffffffffffffffff8111156109635761096261079c565b5b61096f858286016108ef565b9150509250929050565b60006020828403121561098f5761098e610797565b5b600061099d848285016107c2565b91505092915050565b6109af816107a1565b82525050565b600073ffffffffffffffffffffffffffffffffffffffff82169050919050565b60006109e0826109b5565b9050919050565b6109f0816109d5565b82525050565b60008115159050919050565b610a0b816109f6565b82525050565b600081519050919050565b600082825260208201905092915050565b60005b83811015610a4b578082015181840152602081019050610a30565b60008484015250505050565b6000610a6282610a11565b610a6c8185610a1c565b9350610a7c818560208601610a2d565b610a85816107e1565b840191505092915050565b600060a082019050610aa560008301886109a6565b610ab260208301876109e7565b610abf60408301866109a6565b610acc6060830185610a02565b8181036080830152610ade8184610a57565b90509695505050505050565b6000602082019050610aff60008301846109a6565b92915050565b7f5072696365206d7573742062652067726561746572207468616e203000000000600082015250565b6000610b3b601c83610a1c565b9150610b4682610b05565b602082019050919050565b60006020820190508181036000830152610b6a81610b2e565b9050919050565b7f4e487b7100000000000000000000000000000000000000000000000000000000600052601160045260246000fd5b6000610bab826107a1565b91507fffffffffffffffffffffffffffffffffffffffffffffffffffffffffffffffff8203610bdd57610bdc610b71565b5b600182019050919050565b7f4e487b7100000000000000000000000000000000000000000000000000000000600052602260045260246000fd5b60006002820490506001821680610c2f57607f821691505b602082108103610c4257610c41610be8565b5b50919050565b60008190508160005260206000209050919050565b60006020601f8301049050919050565b600082821b905092915050565b600060088302610caa7fffffffffffffffffffffffffffffffffffffffffffffffffffffffffffffffff82610c6d565b610cb48683610c6d565b95508019841693508086168417925050509392505050565b6000819050919050565b6000610cf1610cec610ce7846107a1565b610ccc565b6107a1565b9050919050565b6000819050919050565b610d0b83610cd6565b610d1f610d1782610cf8565b848454610c7a565b825550505050565b600090565b610d34610d27565b610d3f818484610d02565b505050565b5b81811015610d6357610d58600082610d2c565b600181019050610d45565b5050565b601f821115610da857610d7981610c48565b610d8284610c5d565b81016020851015610d91578190505b610da5610d9d85610c5d565b830182610d44565b50505b505050565b600082821c905092915050565b6000610dcb60001984600802610dad565b1980831691505092915050565b6000610de48383610dba565b9150826002028217905092915050565b610dfd82610a11565b67ffffffffffffffff811115610e1657610e156107f2565b5b610e208254610c17565b610e2b828285610d67565b600060209050601f831160018114610e5e5760008415610e4c578287015190505b610e568582610dd8565b865550610ebe565b601f198416610e6c86610c48565b60005b82811015610e9457848901518255600182019150602085019450602081019050610e6f565b86831015610eb15784890151610ead601f891682610dba565b8355505b6001600288020188555050505b505050505050565b7f50726f6475637420646f6573206e6f7420657869737400000000000000000000600082015250565b6000610efc601683610a1c565b9150610f0782610ec6565b602082019050919050565b60006020820190508181036000830152610f2b81610eef565b9050919050565b7f4e6f7420656e6f7567682045746865722073656e740000000000000000000000600082015250565b6000610f68601583610a1c565b9150610f7382610f32565b602082019050919050565b60006020820190508181036000830152610f9781610f5b565b9050919050565b7f50726f6475637420616c72656164792070757263686173656400000000000000600082015250565b6000610fd4601983610a1c565b9150610fdf82610f9e565b602082019050919050565b6000602082019050818103600083015261100381610fc7565b9050919050565b7f43616e6e6f742062757920796f7572206f776e2070726f647563740000000000600082015250565b6000611040601b83610a1c565b915061104b8261100a565b602082019050919050565b6000602082019050818103600083015261106f81611033565b9050919050565b600060c08201905061108b60008301896109a6565b61109860208301886109e7565b6110a560408301876109e7565b6110b260608301866109a6565b6110bf6080830185610a02565b81810360a08301526110d18184610a57565b905097965050505050505056fea2646970667358221220cfbc651f7e637e822acc1bde77d1d40465666ee81975df8e37e3286aad4707c264736f6c63430008130033",
  "immutableReferences": {},
  "source": "// SPDX-License-Identifier: MIT\r\npragma solidity ^0.8.19;\r\n\r\ncontract DigitalMarketplace {\r\n    struct Product {\r\n        uint id;\r\n        address payable owner;\r\n        uint price;\r\n        bool purchased;\r\n        string ipfsHash; // hash do IPFS do produto digital\r\n    }\r\n\r\n    mapping(uint => Product) public products;\r\n    uint public productCount = 0;\r\n\r\n    event ProductCreated(\r\n        uint id,\r\n        address payable owner,\r\n        uint price,\r\n        bool purchased,\r\n        string ipfsHash\r\n    );\r\n\r\n    event ProductPurchased(\r\n        uint id,\r\n        address payable owner,\r\n        address payable buyer,\r\n        uint price,\r\n        bool purchased,\r\n        string ipfsHash\r\n    );\r\n\r\n    function createProduct(uint _price, string memory _ipfsHash) public {\r\n        require(_price > 0, \"Price must be greater than 0\");\r\n        productCount ++;\r\n        products[productCount] = Product(productCount, payable(msg.sender), _price, false, _ipfsHash);\r\n        emit ProductCreated(productCount, payable(msg.sender), _price, false, _ipfsHash);\r\n    }\r\n\r\n    function purchaseProduct(uint _id) public payable {\r\n        Product memory _product = products[_id];\r\n        address payable _seller = _product.owner;\r\n        require(_product.id > 0 && _product.id <= productCount, \"Product does not exist\");\r\n        require(msg.value >= _product.price, \"Not enough Ether sent\");\r\n        require(!_product.purchased, \"Product already purchased\");\r\n        require(_seller != msg.sender, \"Cannot buy your own product\");\r\n        _product.owner = payable(msg.sender);\r\n        _product.purchased = true;\r\n        products[_id] = _product;\r\n        _seller.transfer(msg.value);\r\n        emit ProductPurchased(productCount, _seller, payable(msg.sender), _product.price, true, _product.ipfsHash);\r\n    }\r\n}\r\n",
  "sourcePath": "C:\\Users\\daian\\Desktop\\exames\\contracts\\DigitalMarketplace.sol",
  "compiler": {
    "name": "solc",
    "version": "0.8.19+commit.7dd6d404.Emscripten.clang"
  },
  "schemaVersion": "3.4.16",
  "updatedAt": "2024-07-21T17:30:19.094Z",
  "networkType": "ethereum",
  "devdoc": {
    "kind": "dev",
    "methods": {},
    "version": 1
  },
  "userdoc": {
    "kind": "user",
    "methods": {},
    "version": 1
  }
}